:100000006CC086C085C084C083C082C081C080C0EF
:100010007FC01BC47DC0ACC87BC07AC079C078C02B
:1000200077C076C075C0BFC7A6C723C82FC76AC828
:100030006FC86EC86DC86CC86BC843C769C847C76E
:1000400067C841C765C864C840C762C861C860C89E
:10005000ACC7F3C60DC70FC807634236B79BD8A716
:100060001A39685618AEBAAB558C1D3CB7CC5763DD
:10007000BD6DEDFD753EF6177231BF000000803F8B
:1000800008000000BE922449123EABAAAA2ABECDA7
:10009000CCCC4C3E00000080BEABAAAAAA3E000019
:1000A0000000BF000000803F000000000008417811
:1000B000D3BB4387D1133D190E3CC3BD4282AD2B48
:1000C0003E68EC8276BED98FE1A93E4C80EFFFBE40
:1000D00001C4FF7F3F000000000011241FBECFE5D8
:1000E000D4E0DEBFCDBF10E0A0E6B0E0E6EAF9E183
:1000F00002C005900D92A237B107D9F721E0A2E71F
:10010000B0E001C01D92A130B207E1F7B7D549CCEC
:1001100077CF813091F487B38C6287BB6C9A60345F
:1001200011F4699A0BC0603111F4689A07C0643009
:1001300029F08DB183608DB901C0BC9AC29AC09874
:100140006E9A0895C2989AE19A95F1F700C08FB916
:10015000779BFECF8FB18AE18A95F1F700C08FEFD0
:100160008FB9779BFECF8FB19AE19A95F1F700C0D6
:10017000C29A08950F931F93813009F4605E7AE16B
:100180007A95F1F700C0C2989AE19A95F1F700C00C
:100190006FB9779BFECF9FB17AE17A95F1F700C0F6
:1001A000E0E0F0E09FEFE217F307DCF481110BC011
:1001B000603A49F09FB9779BFECF7FB1D801AE0F6F
:1001C000BF1F7C9308C0DA01AE0FBF1F7C917FB9BF
:1001D000779BFECF7FB17AE17A95F1F700C0319637
:1001E000E2CFC29A1F910F910895DF92EF92FF9292
:1001F0000F931F93CF93DF9300D000D000D0CDB7E3
:10020000DEB7E82E962FD42EB89AC098B998C19A26
:10021000FF24F394F9820EED10E021E030E0AE010E
:100220004F5F5F4F61E081E09E83A4DFF98221E0B0
:1002300030E0AE014F5F5F4F62E081E09BDF83E023
:10024000898321E030E0AE014F5F5F4F63E081E0E2
:1002500091DFF98221E030E0AE014F5F5F4F65E052
:1002600081E088DF9E81913021F0923011F48EE0A0
:1002700001C086E089830EED10E021E030E0AE01A0
:100280004F5F5F4F66E081E075DF92E199839A836B
:100290009B839C839D8325E030E0AE014F5F5F4FE1
:1002A0006AE081E067DF25E030E0AE014F5F5F4F3D
:1002B00060E181E05FDFD98221E030E0AE014F5F95
:1002C0005F4F61E181E056DF83E2898321E030E026
:1002D000AE014F5F5F4F64E081E04CDFE11003C08F
:1002E0008EE1898304C08FE189830EED10E021E067
:1002F00030E0AE014F5F5F4F60E081E03BDF26966C
:100300000FB6F894DEBF0FBECDBFDF91CF911F9126
:100310000F91FF90EF90DF9008958AE18A95F1F7B1
:1003200000C0C2988AE18A95F1F700C087E28FB9D0
:10033000779BFECF8FB18AE18A95F1F700C080E705
:100340008FB9779BFECF8FB18AE18A95F1F700C014
:10035000C29A0895FF920F931F93CF93DF93EC01FE
:10036000F62EDBDF0EED10E020E030E0AE0161EEB6
:1003700080E000DF2F2D30E0AE0160EA80E0FADEA1
:10038000DF91CF911F910F91FF900895C09A8FE850
:1003900091E00197F1F700C00000C09808950F9315
:1003A0001F932AE12A95F1F700C0C098262F30E06C
:1003B0008C014EED50E061E680E0DCDE8AE18A955A
:1003C000F1F700C082EE8FB9779BFECF8FB12AE1A3
:1003D0002A95F1F700C0A1DF8AE18A95F1F700C004
:1003E0001F910F910895FA01608371838283938333
:1003F0000895FC016081718182819381089510BC10
:1004000083E389B980B58E6A80BD8AB188698AB96B
:1004100008955D9BFECF8CB908955F9BFECF8CB194
:1004200008950F931F93CF93DF93C7E0D0E0082F79
:1004300010E0C8010C2E02C0959587950A94E2F74A
:1004400080FF02C081E301C080E3E3DF219788F7EA
:100450008DE0DF91CF911F910F91DBCFEF92FF9253
:100460000F931F93CF93DF938C01EC01E62EF12CB9
:10047000CE01801B910B8E159F051CF48991C9DF5D
:10048000F7CF8DE0DF91CF911F910F91FF90EF900B
:10049000C0CF0F931F93CF93DF93EC018C01FE012C
:1004A00001900020E9F73197EC1BFD0BC8018C1B74
:1004B0009D0B8E179F0728F4F80181918F01A9DF0A
:1004C000EECF8DE0DF91CF911F910F91A2CF7F9260
:1004D0008F929F92AF92BF92CF92DF92EF92FF9254
:1004E0000F931F93CF93DF93CDB7DEB764970FB60B
:1004F000F894DEBF0FBECDBF6B017C0161157105A5
:1005000081059105A9F480E364960FB6F894DEBFE7
:100510000FBECDBFDF91CF911F910F91FF90EF9054
:10052000DF90CF90BF90AF909F908F907F9071CFD2
:1005300097FF0AC0F094E094D094C094C11CD11CE1
:10054000E11CF11C8DE265DF712C9AE0892E912C63
:10055000A12CB12C01E010E00C0F1D1F070D111D87
:10056000C701B601A501940127D6F801608369018E
:100570007A017394C114D104E104F10459F700E045
:1005800010E0E72CF12CCC24C394D12CCC0EDD1E32
:10059000CE0CDF1C01501109C701800F911F01967D
:1005A00039F0F601E00FF11F8081805D32DFF2CF7C
:1005B00064960FB6F894DEBF0FBECDBFDF91CF912A
:1005C0001F910F91FF90EF90DF90CF90BF90AF9071
:1005D0009F908F907F9008958F929F92AF92BF923D
:1005E000CF92DF92EF92FF920F931F93CF93DF93FF
:1005F000CDB7DEB764970FB6F894DEBF0FBECDBFA0
:100600008A01611571058105910531F480E3FA01D4
:10061000808381E090E045C097FF0DC09095809564
:10062000709561957F4F8F4F9F4F2DE2FA01208388
:10063000DD24D39401C0D12CC12C3AE0832E912C1F
:10064000A12CB12CEE24E394F12CEC0EFD1EEC0C4D
:10065000F11CA5019401B0D5F7016083B901CA016D
:10066000C394611571058105910561F77C2D7D0DA0
:1006700080E090E041E050E04C0F5D1F4C0D511DBB
:1006800001972D2D30E0D71659F0D801A20FB31FD6
:10069000FA01E80FF91F6081605D6C93D394F0CF8D
:1006A000C90164960FB6F894DEBF0FBECDBFDF91CF
:1006B000CF911F910F91FF90EF90DF90CF90BF905F
:1006C000AF909F908F900895CF92DF92EF92FF921C
:1006D000CF93C82F6A017B0180E59BDE8C2F99DECA
:1006E00020E030E44CE156E4C701B60157D705D805
:1006F00072D6EDDE8DE0CF91FF90EF90DF90CF903E
:1007000088CECF92DF92EF92FF92CF93C82F6A01EB
:100710007B0180E57EDE8C2F7CDE20E030E44CE146
:1007200056E4C701B6013AD7E8D755D6D0DE8DE0FA
:10073000CF91FF90EF90DF90CF906BCE1F93CF9330
:10074000DF9300D0CDB7DEB7182F80E54A836983E9
:1007500060DE812F5EDE698170E080E090E0B7DED0
:100760008CE257DE4A81642F70E080E090E0AFDEDB
:100770008DE00F900F90DF91CF911F914ACECF93D4
:10078000DF93EC0188818638A9F188F48038D1F0B4
:10079000853809F057C049815A816B817C8187E592
:1007A000B0DF4D815E816F81788583E534C0883804
:1007B00009F440C098F1893809F044C080E529DE89
:1007C00082E53BC049815A816B817C8188E57CDF71
:1007D0004D815E816F81788589E576DF49855A850F
:1007E0006B857C8581E470DF4E856D8585E4DF91C6
:1007F000CF91A4CF49815A816B817C818EE481DFC6
:100800004D815E816F8178858DE47BDF4D815E81D6
:100810006F81788586E4DF91CF9173CF49815A81CA
:100820006B817C818BE46DDF4D815E816F8178858A
:1008300084E5F1CF80E5EDDD8CE4EBDD8DE0DF914B
:10084000CF91E7CDDF91CF9108951F920F920FB610
:100850000F9211248F939F9380EE82BF8091DD00D1
:100860008F5F8093DD0080917200909173000196FC
:100870009093730080937200809172009091730046
:10088000449721F4109273001092720080917500C9
:10089000882351F09091DD00981306C010927700E4
:1008A00010927500109278009F918F910F900FBE5B
:1008B0000F901F901895FB0120E030E050E04217A8
:1008C000530734F09191981731F02F5F3F4FF7CFD6
:1008D0008FEF9FEF0895C90108954F925F926F9235
:1008E0007F929F92AF92BF92CF92DF92EF92FF9250
:1008F0000F931F93CF93DF93CDB7DEB768970FB6F3
:10090000F894DEBF0FBECDBFFC0120812D3229F44B
:10091000019661509924939401C0912CFC01DE0151
:10092000119600E010E070E0819190ED980F9A3000
:1009300070F46017710724F08D930F5F1F4FF4CF91
:10094000CE0101965C01C12CD12C760107C00115A6
:100950001105B1F76FEF7FEFCB0144C0F501619155
:100960005F0170E060537109882777FD8095982FAB
:1009700065D5C3D62B013C0101501109B801882768
:1009800077FD8095982F5AD59B01AC0160E070E00F
:1009900080E291E466D6B1D69B01AC01C701B601F5
:1009A0002D8B3E8B4F8B588F49D56B017C012D8948
:1009B0003E894F89588DC301B201F0D59B01AC012E
:1009C000C701B60138D407D56B017C0101151105AB
:1009D00029F6992039F066277727CB016C197D0914
:1009E0008E099F0968960FB6F894DEBF0FBECDBF83
:1009F000DF91CF911F910F91FF90EF90DF90CF90FB
:100A0000BF90AF909F907F906F905F904F900895B0
:100A100080919000811167C080917600813071F5DE
:100A200080916000813061F580918F00813031F4D8
:100A300090E89093F20010928F0041C0F894EFEB91
:100A4000F0E0A2EFB0E081E091919D93809361008E
:100A500090E0EE3CF907C1F778941092760080910F
:100A60008E008F5F80938E0080918E008630D8F14B
:100A700081E080938F0010928E0008958823A9F062
:100A8000F894EFEBF0E0A2EFB0E081E091919D935C
:100A90008093610090E0EE3CF907C1F778941092E2
:100AA000760081E080938F00089580916000882314
:100AB00049F080E88093F20010928F0081E08093EB
:100AC000610008959091DD0080918D0098130BC016
:100AD0008FE38093F20081E0809361008091DD00DC
:100AE000885380938D0008950F931F93CF93DF93C6
:100AF00000D000D01F92CDB7DEB780916200833066
:100B000079F038F4813009F4A6C0823009F462C06B
:100B1000ABC0853049F1D0F0863009F469C0A4C07B
:100B200080916100813079F4809390006FE082EFD2
:100B300090E010DC8091DD00865F80939100109240
:100B4000610084E08FC0109290008EC09091DD0013
:100B500080919100981388C019DC8091DD00865F38
:100B60008093910085E07EC0B19B06C09091DD002E
:100B700080919100981378C087E0E4DA8E32F1F426
:100B80008091F20087FF6DC0C8DB8FE189830EED95
:100B900010E021E030E0AE014F5F5F4F60E081E0A8
:100BA000E9DA8091DD00825E8093910082E080939B
:100BB000620085B390E2892785BB56C0AEDB4FE06B
:100BC00061E080E012DB8091DD00865F8093910020
:100BD00081E048C09091DD0080919100981344C05D
:100BE000C09A8091DD00825E8093910086E03AC0D9
:100BF000B19B06C09091DD0080919100981334C0A4
:100C0000C09887E09FDA803481F487E09BDA6FE058
:100C10008E3021F080EB90E0C2DBF7CF80EB90E0EC
:100C2000AEDD85B390E2892785BB77DB8EE18983D2
:100C30000EED10E021E030E0AE014F5F5F4F60E06D
:100C400081E098DA81E0809362008091DD00875E28
:100C50008093910009C09091DD00809191009813DC
:100C600003C083E0809362000F900F900F900F906D
:100C70000F90DF91CF911F910F910895A59A83B79F
:100C8000846083BF89B7816089BF789460E081E028
:100C900040DA4FE061E080E0A8DA2FEF89E698E1E2
:100CA000215080409040E1F700C0000087E04ADA20
:100CB0008E3009F4AD9A2FEF83ED90E32150804000
:100CC0009040E1F700C00000AD981092B00097DBB3
:100CD00083E690E0DEDB87E035DAA3DB99DE04DF34
:100CE000FDCF4DCD7F928F929F92AF92BF92CF92C8
:100CF000DF92EF92FF920F931F93CF93DF93FC014C
:100D00002181C62FD0E000E010E0EE24E394F12C26
:100D1000812C912C54016C01CC0EDD1E5AE0752EF5
:100D20002D3289F501501109CE01800F911F0297D4
:100D30000CF1F601E00FF11F808190E0C0978E9DCD
:100D4000B0018F9D700D9E9D700D1124882777FD39
:100D50008095982F73D3D1D49B01AC01C501B40108
:100D60006AD24B015C01C701789E7001799EF00C3C
:100D70001124D8CF20E030E048EC52E4C501B401A2
:100D8000C2D2905830C001501109CE01800F911F7E
:100D9000181619060CF5F601E00FF11F808190E09E
:100DA000C0978E9DB0018F9D700D9E9D700D11247A
:100DB000882777FD8095982F41D39FD49B01AC0164
:100DC000C501B40138D24B015C01F7017E9E700170
:100DD0007F9EF00C1124D7CF20E030E048EC52E4A5
:100DE000C501B40190D2DF91CF911F910F91FF9077
:100DF000EF90DF90CF90BF90AF909F908F907F90BB
:100E000008954F925F926F927F928F929F92AF92CE
:100E1000BF92CF92DF92EF92FF92CF93DF93EC01DC
:100E2000F62E888190E0FC01E254F109E931F105E8
:100E300008F06EC1ED5EFF4F0994CE0153DF6B01E8
:100E40007C0120E030E040E252E459D2811104C03C
:100E500085B390E2892785BB81E08093BF00C09273
:100E6000C000D092C100E092C200F092C3004EC117
:100E7000CE0138DF22E02093BF006093C000709362
:100E8000C1008093C2009093C3003FC185B390E23C
:100E9000892785BB83E08093BF009A819093C0002F
:100EA0008C818093C1002981222319F0906890934E
:100EB000C0009B81992309F428C180688093C100F8
:100EC00024C188E820C189E81EC18FE71CC187E0E2
:100ED0008093BF00EE24EA94E60E4E2DBE0188E515
:100EE000EADCFA94FA946F2D681B01968C0F9D1F13
:100EF000F4DC2B013C014E2DBE0189E5DCDC6F2DBD
:100F0000681B01968C0F9D1FE8DC4B015C014E2D88
:100F1000BE0181E4D0DC6F2D681B01968C0F9D1FF4
:100F2000DCDC6B017C01C301B20188D220E030E03F
:100F30004AE754E4E8D16093C0007093C100809305
:100F4000C2009093C300C501B40178D220E030E024
:100F50004AE754E4D8D16093C4007093C5008093ED
:100F6000C6009093C700C701B60168D220E030E503
:100F700043EC57E474C088E08093BF00EE24EA9409
:100F8000E60E4E2DBE0187E596DCFA94FA946F2D9D
:100F9000681B01968C0F9D1FA0DC4B015C014E2D40
:100FA000BE0183E57FC085E8AEC089E08093BF00C5
:100FB000462FBE018EE47FDCEE24EA94EF0C6E2D0A
:100FC000681B01968C0F9D1F88DC2B013C014F2D67
:100FD000BE018DE470DC6E2D681B01968C0F9D1F89
:100FE0007CDC4B015C014F2DBE0186E464DC6E2D80
:100FF000681B01968C0F9D1F70DC6B017C01B20198
:10100000882777FD8095982F19D220E030E04AE7B5
:1010100054E479D16093C0007093C1008093C20002
:101020009093C300B401882777FD8095982F06D24E
:1010300020E030E04AE754E466D16093C400709346
:10104000C5008093C6009093C700B601882777FD3E
:101050008095982FF3D120E030E04AE754E453D153
:101060006093C8007093C9008093CA009093CB002E
:101070004CC086E848C08AE08093BF00EE24EA9422
:10108000E60E4E2DBE018BE416DCFA94FA946F2D19
:10109000681B01968C0F9D1F20DC4B015C014E2DBF
:1010A000BE0184E508DC6F2D681B01968C0F9D1F27
:1010B00014DC6B017C01B401882777FD8095982FA3
:1010C000BDD120E030E04AE754E41DD16093C00078
:1010D0007093C1008093C2009093C300B60188272B
:1010E00077FD8095982FAAD120E030E04AE754E4BC
:1010F0000AD16093C4007093C5008093C60090939A
:10110000C70003C087E88093BF0081E0809376002A
:10111000DF91CF91FF90EF90DF90CF90BF90AF9095
:101120009F908F907F906F905F904F9008959091D7
:1011300078009923B9F08D3051F46091770082E9FD
:1011400090E05FDE10927700109278000895909101
:101150007700E92FF0E0EE56FF4F80839F5F90937A
:1011600077000895803519F481E080937800089520
:101170001F920F920FB60F9211242F933F934F930C
:101180005F936F937F938F939F93AF93BF93EF93EF
:10119000FF9343D9CCDFFF91EF91BF91AF919F9126
:1011A0008F917F916F915F914F913F912F910F9010
:1011B0000FBE0F901F901895052E97FB16F4009404
:1011C0000FD057FD05D014D007FC02D046F408C05C
:1011D00050954095309521953F4F4F4F5F4F089563
:1011E00090958095709561957F4F8F4F9F4F089593
:1011F000A1E21A2EAA1BBB1BFD010DC0AA1FBB1F1B
:10120000EE1FFF1FA217B307E407F50720F0A21B8C
:10121000B30BE40BF50B661F771F881F991F1A94F9
:1012200069F760957095809590959B01AC01BD0123
:10123000CF0108955058BB27AA270ED075C166D19B
:1012400030F06BD120F031F49F3F11F41EF45BC1FC
:101250000EF4E095E7FB51C1E92F77D180F3BA177F
:10126000620773078407950718F071F49EF58FC124
:101270000EF4E0950B2EBA2FA02D0B01B9019001B1
:101280000C01CA01A0011124FF27591B99F0593FF5
:1012900050F4503E68F11A16F040A22F232F342F3D
:1012A0004427585FF3CF469537952795A795F0408B
:1012B0005395C9F77EF41F16BA0B620B730B840BA0
:1012C000BAF09150A1F0FF0FBB1F661F771F881F58
:1012D000C2F70EC0BA0F621F731F841F48F48795B0
:1012E00077956795B795F7959E3F08F0B3CF93959F
:1012F000880F08F09927EE0F979587950895D9D014
:1013000008F481E008950CD00FC107D140F0FED061
:1013100030F021F45F3F19F0F0C0511139C1F3C032
:1013200014D198F39923C9F35523B1F3951B550BA9
:10133000BB27AA2762177307840738F09F5F5F4FA8
:10134000220F331F441FAA1FA9F333D00E2E3AF0E9
:10135000E0E830D091505040E695001CCAF729D003
:10136000FE2F27D0660F771F881FBB1F2617370752
:101370004807AB07B0E809F0BB0B802DBF01FF2782
:1013800093585F4F2AF09E3F510568F0B6C000C1E8
:101390005F3FECF3983EDCF3869577956795B795BC
:1013A000F7959F5FC9F7880F911D9695879597F9D7
:1013B0000895E1E0660F771F881FBB1F6217730750
:1013C0008407BA0720F0621B730B840BBA0BEE1F65
:1013D00088F7E095089504D06894B111D9C00895B4
:1013E000BCD088F09F5790F0B92F9927B751A0F043
:1013F000D1F0660F771F881F991F1AF0BA95C9F7A9
:1014000012C0B13081F0C3D0B1E00895C0C0672FE1
:10141000782F8827B85F39F0B93FCCF38695779558
:101420006795B395D9F73EF4909580957095619541
:101430007F4F8F4F9F4F0895E89409C097FB3EF46C
:1014400090958095709561957F4F8F4F9F4F992311
:10145000A9F0F92F96E9BB279395F695879577958F
:101460006795B795F111F8CFFAF4BB0F11F460FF4F
:101470001BC06F5F7F4F8F4F9F4F16C0882311F0A7
:1014800096E911C0772321F09EE8872F762F05C0BB
:10149000662371F096E8862F70E060E02AF09A9556
:1014A000660F771F881FDAF7880F9695879597F94B
:1014B0000895990F0008550FAA0BE0E8FEEF1616E5
:1014C0001706E807F907C0F012161306E407F50738
:1014D00098F0621B730B840B950B39F40A2661F0AC
:1014E000232B242B252B21F408950A2609F4A1404F
:1014F000A6958FEF811D811D089597F99F6780E85C
:1015000070E060E008959FEF80EC089500240A9455
:101510001616170618060906089500240A941216CE
:101520001306140605060895092E0394000C11F401
:10153000882352F0BB0F40F4BF2B11F460FF04C0AE
:101540006F5F7F4F8F4F9F4F089557FD9058440F07
:10155000551F59F05F3F71F04795880F97FB991F12
:1015600061F09F3F79F087950895121613061406CF
:10157000551FF2CF4695F1DF08C01616170618065C
:10158000991FF1CF86957105610508940895E89437
:10159000BB2766277727CB0197F908950BD0C4CFD7
:1015A000B5DF28F0BADF18F0952309F0A6CFABCF4E
:1015B0001124EECFCADFA0F3959FD1F3950F50E031
:1015C000551F629FF001729FBB27F00DB11D639FF5
:1015D000AA27F00DB11DAA1F649F6627B00DA11D9B
:1015E000661F829F2227B00DA11D621F739FB00D41
:1015F000A11D621F839FA00D611D221F749F3327B1
:10160000A00D611D231F849F600D211D822F762F49
:101610006A2F11249F5750408AF0E1F088234AF046
:10162000EE0FFF1FBB1F661F771F881F9150504092
:10163000A9F79E3F510570F060CFAACF5F3FECF352
:10164000983EDCF3869577956795B795F795E7957E
:101650009F5FC1F7FE2B880F911D9695879597F98F
:101660000895FA01EE0FFF1F30962105310599F11B
:101670006115710561F48038BFE39B0749F16894F7
:101680009038810561F08038BFEF9B0741F09923C6
:1016900042F5FF3FE1053105210511F1E894089479
:1016A000E795D901AA2329F4AB2FBE2FF85FD0F319
:1016B00010C0FF5F70F4A695E0F7F73950F019F00D
:1016C000FF3A38F49F779F930CD00F9007FC905807
:1016D00008953EF018CF60E070E080E89FE3089541
:1016E0004FE79F775F934F933F932F93E7D02F91CF
:1016F0003F914F915F9152DF25C02FDFE0F09E3781
:10170000D8F09639B8F49E3848F4672F782F882798
:10171000985FF9CF86957795679593959539D0F32E
:10172000B62FB1706B0F711D811D20F487957795D1
:101730006795939533C04DC02BCF19F40EF0DDCED5
:1017400026CFE1CE0ADFC8F39638C0F707F80F922C
:10175000E8942BE33AEA48EB5FE72EDF0F920F9213
:101760000F924DB75EB70F92E9D0E8E5F0E03FD0B9
:101770004F915F91EF91FF91E595EE1FFF1F49F0AB
:10178000FE57E0684427EE0F441FFA95E1F74195B4
:10179000550B5BD00F9007FE4FC00895882371F45E
:1017A000772321F09850872B762F07C0662311F4FA
:1017B00099270DC09051862B70E060E02AF09A9531
:1017C000660F771F881FDAF7880F9695879597F928
:1017D00008959F3F31F0915020F487957795679554
:1017E000B795880F911D9695879597F90895DF9382
:1017F000CF931F930F93FF92EF92DF927B018C01A7
:10180000689405C0DA2EEF01D5DEFE01E894A591BB
:101810002591359145915591AEF3EF011DDDFE0106
:101820009701A801DA9479F7DF90EF90FF900F917C
:101830001F91CF91DF9108959B01AC0160E070E0B2
:1018400080E89FE360CD59CEC4CF87DEE8F39923CB
:10185000D9F3940F511DBBF39150504094F059F0BF
:10186000882332F0660F771F881F91505040C1F7D0
:101870009E3F510544F7880F911D9695879597F9DE
:1018800008955F3FACF0983E9CF0BB278695779516
:101890006795B79508F4B1609395C1F7BB0F58F7FA
:1018A00011F460FFE8CF6F5F7F4F8F4F9F4FE3CF03
:1018B0006FCE0EF08ECF27CE68941FCE4EDEC8F3CB
:1018C0009923D1F3C6F3DF93CF931F930F93FF9226
:1018D000C92FDD2788232AF02197660F771F881FDD
:1018E000DAF720E030E040E85FEB9FE3883920F052
:1018F000803E30F021968F779EDCE0E8F0E003C078
:101900009ADCEDEAF0E073DF8B01BE01EC01FB2E07
:101910006F5771097595771F880B990B8FDD28E13B
:1019200032E741E35FE346DEAF2D9801AE01FF9061
:101930000F911F91CF91DF918FDCF6CDFA01DC0181
:10194000AA0FBB1F9B01AC01BF5728F422273327E6
:10195000442750781FC0B75188F4AB2F0024469518
:1019600037952795011CA395D2F3002069F0220F2B
:10197000331F441FB395DAF30DD05CCC6130710591
:10198000A0E88A07B94630F49B01AC0166277727A7
:1019900088279078309621F02083318342835383C7
:0619A0000895F894FFCF4A
:1019A600010103496E697469616C697A6174696FD2
:0219B6006E00C1
:00000001FF
